{
  "_format": "hh-sol-artifact-1",
  "contractName": "Auction",
  "sourceName": "contracts/Auction.sol",
  "abi": [
    {
      "anonymous": false,
      "inputs": [
        {
          "indexed": false,
          "internalType": "uint256",
          "name": "auctionId",
          "type": "uint256"
        },
        {
          "indexed": false,
          "internalType": "address",
          "name": "seller",
          "type": "address"
        },
        {
          "indexed": false,
          "internalType": "string",
          "name": "description",
          "type": "string"
        }
      ],
      "name": "AuctionCreated",
      "type": "event"
    },
    {
      "anonymous": false,
      "inputs": [
        {
          "indexed": false,
          "internalType": "uint256",
          "name": "auctionId",
          "type": "uint256"
        },
        {
          "indexed": false,
          "internalType": "address",
          "name": "winner",
          "type": "address"
        },
        {
          "indexed": false,
          "internalType": "uint256",
          "name": "amount",
          "type": "uint256"
        }
      ],
      "name": "AuctionEnded",
      "type": "event"
    },
    {
      "anonymous": false,
      "inputs": [
        {
          "indexed": false,
          "internalType": "uint256",
          "name": "auctionId",
          "type": "uint256"
        },
        {
          "indexed": false,
          "internalType": "address",
          "name": "bidder",
          "type": "address"
        },
        {
          "indexed": false,
          "internalType": "uint256",
          "name": "amount",
          "type": "uint256"
        }
      ],
      "name": "BidPlaced",
      "type": "event"
    },
    {
      "anonymous": false,
      "inputs": [
        {
          "indexed": false,
          "internalType": "address",
          "name": "bidder",
          "type": "address"
        },
        {
          "indexed": false,
          "internalType": "uint256",
          "name": "amount",
          "type": "uint256"
        }
      ],
      "name": "RefundProcessed",
      "type": "event"
    },
    {
      "anonymous": false,
      "inputs": [
        {
          "indexed": false,
          "internalType": "address",
          "name": "user",
          "type": "address"
        }
      ],
      "name": "UserRegistered",
      "type": "event"
    },
    {
      "inputs": [],
      "name": "auctionCounter",
      "outputs": [
        {
          "internalType": "uint256",
          "name": "",
          "type": "uint256"
        }
      ],
      "stateMutability": "view",
      "type": "function"
    },
    {
      "inputs": [
        {
          "internalType": "uint256",
          "name": "",
          "type": "uint256"
        }
      ],
      "name": "auctions",
      "outputs": [
        {
          "internalType": "uint256",
          "name": "id",
          "type": "uint256"
        },
        {
          "internalType": "address",
          "name": "seller",
          "type": "address"
        },
        {
          "internalType": "string",
          "name": "description",
          "type": "string"
        },
        {
          "internalType": "uint256",
          "name": "startingPrice",
          "type": "uint256"
        },
        {
          "internalType": "uint256",
          "name": "reservePrice",
          "type": "uint256"
        },
        {
          "internalType": "uint256",
          "name": "startTime",
          "type": "uint256"
        },
        {
          "internalType": "uint256",
          "name": "endTime",
          "type": "uint256"
        },
        {
          "internalType": "uint256",
          "name": "highestBid",
          "type": "uint256"
        },
        {
          "internalType": "address",
          "name": "highestBidder",
          "type": "address"
        },
        {
          "internalType": "bool",
          "name": "active",
          "type": "bool"
        },
        {
          "internalType": "bool",
          "name": "ended",
          "type": "bool"
        }
      ],
      "stateMutability": "view",
      "type": "function"
    },
    {
      "inputs": [
        {
          "internalType": "uint256",
          "name": "",
          "type": "uint256"
        },
        {
          "internalType": "uint256",
          "name": "",
          "type": "uint256"
        }
      ],
      "name": "bidHistory",
      "outputs": [
        {
          "internalType": "address",
          "name": "bidder",
          "type": "address"
        },
        {
          "internalType": "uint256",
          "name": "amount",
          "type": "uint256"
        },
        {
          "internalType": "uint256",
          "name": "timestamp",
          "type": "uint256"
        }
      ],
      "stateMutability": "view",
      "type": "function"
    },
    {
      "inputs": [
        {
          "internalType": "uint256",
          "name": "",
          "type": "uint256"
        },
        {
          "internalType": "address",
          "name": "",
          "type": "address"
        }
      ],
      "name": "bids",
      "outputs": [
        {
          "internalType": "uint256",
          "name": "",
          "type": "uint256"
        }
      ],
      "stateMutability": "view",
      "type": "function"
    },
    {
      "inputs": [
        {
          "internalType": "string",
          "name": "_description",
          "type": "string"
        },
        {
          "internalType": "uint256",
          "name": "_startingPrice",
          "type": "uint256"
        },
        {
          "internalType": "uint256",
          "name": "_reservePrice",
          "type": "uint256"
        },
        {
          "internalType": "uint256",
          "name": "_duration",
          "type": "uint256"
        }
      ],
      "name": "createAuction",
      "outputs": [],
      "stateMutability": "nonpayable",
      "type": "function"
    },
    {
      "inputs": [
        {
          "internalType": "uint256",
          "name": "_auctionId",
          "type": "uint256"
        }
      ],
      "name": "endAuction",
      "outputs": [],
      "stateMutability": "nonpayable",
      "type": "function"
    },
    {
      "inputs": [
        {
          "internalType": "uint256",
          "name": "_auctionId",
          "type": "uint256"
        }
      ],
      "name": "getAuction",
      "outputs": [
        {
          "internalType": "address",
          "name": "seller",
          "type": "address"
        },
        {
          "internalType": "string",
          "name": "description",
          "type": "string"
        },
        {
          "internalType": "uint256",
          "name": "startingPrice",
          "type": "uint256"
        },
        {
          "internalType": "uint256",
          "name": "reservePrice",
          "type": "uint256"
        },
        {
          "internalType": "uint256",
          "name": "startTime",
          "type": "uint256"
        },
        {
          "internalType": "uint256",
          "name": "endTime",
          "type": "uint256"
        },
        {
          "internalType": "uint256",
          "name": "highestBid",
          "type": "uint256"
        },
        {
          "internalType": "address",
          "name": "highestBidder",
          "type": "address"
        },
        {
          "internalType": "bool",
          "name": "active",
          "type": "bool"
        },
        {
          "internalType": "bool",
          "name": "ended",
          "type": "bool"
        }
      ],
      "stateMutability": "view",
      "type": "function"
    },
    {
      "inputs": [
        {
          "internalType": "uint256",
          "name": "_auctionId",
          "type": "uint256"
        },
        {
          "internalType": "address",
          "name": "_bidder",
          "type": "address"
        }
      ],
      "name": "getBidAmount",
      "outputs": [
        {
          "internalType": "uint256",
          "name": "",
          "type": "uint256"
        }
      ],
      "stateMutability": "view",
      "type": "function"
    },
    {
      "inputs": [
        {
          "internalType": "uint256",
          "name": "_auctionId",
          "type": "uint256"
        }
      ],
      "name": "getBidCount",
      "outputs": [
        {
          "internalType": "uint256",
          "name": "",
          "type": "uint256"
        }
      ],
      "stateMutability": "view",
      "type": "function"
    },
    {
      "inputs": [
        {
          "internalType": "uint256",
          "name": "_auctionId",
          "type": "uint256"
        }
      ],
      "name": "getBidHistory",
      "outputs": [
        {
          "internalType": "address[]",
          "name": "bidders",
          "type": "address[]"
        },
        {
          "internalType": "uint256[]",
          "name": "amounts",
          "type": "uint256[]"
        },
        {
          "internalType": "uint256[]",
          "name": "timestamps",
          "type": "uint256[]"
        }
      ],
      "stateMutability": "view",
      "type": "function"
    },
    {
      "inputs": [
        {
          "internalType": "uint256",
          "name": "_auctionId",
          "type": "uint256"
        }
      ],
      "name": "placeBid",
      "outputs": [],
      "stateMutability": "payable",
      "type": "function"
    },
    {
      "inputs": [],
      "name": "registerUser",
      "outputs": [],
      "stateMutability": "nonpayable",
      "type": "function"
    },
    {
      "inputs": [
        {
          "internalType": "address",
          "name": "",
          "type": "address"
        }
      ],
      "name": "registeredUsers",
      "outputs": [
        {
          "internalType": "bool",
          "name": "",
          "type": "bool"
        }
      ],
      "stateMutability": "view",
      "type": "function"
    }
  ],
  "bytecode": "0x608060405234801561001057600080fd5b50612a9c806100206000396000f3fe6080604052600436106100c25760003560e01c8063744d34111161007f578063a7e7664411610059578063a7e76644146102a6578063b47089b4146102d1578063b9a2de3a1461030e578063c0738dce14610337576100c2565b8063744d34111461020757806378bd7935146102445780639979ef451461028a576100c2565b80630e50cee5146100c75780633f1ffcec146101045780634d3820eb146101415780634e46373414610158578063571a26a01461018157806361ab546e146101c8575b600080fd5b3480156100d357600080fd5b506100ee60048036038101906100e991906118cc565b610376565b6040516100fb9190611914565b60405180910390f35b34801561011057600080fd5b5061012b60048036038101906101269190611965565b610396565b60405161013891906119b4565b60405180910390f35b34801561014d57600080fd5b506101566103bb565b005b34801561016457600080fd5b5061017f600480360381019061017a9190611b15565b6104d8565b005b34801561018d57600080fd5b506101a860048036038101906101a39190611b98565b61084d565b6040516101bf9b9a99989796959493929190611c53565b60405180910390f35b3480156101d457600080fd5b506101ef60048036038101906101ea9190611d05565b610989565b6040516101fe93929190611d45565b60405180910390f35b34801561021357600080fd5b5061022e60048036038101906102299190611b98565b6109f0565b60405161023b91906119b4565b60405180910390f35b34801561025057600080fd5b5061026b60048036038101906102669190611b98565b610a56565b6040516102819a99989796959493929190611d7c565b60405180910390f35b6102a4600480360381019061029f9190611b98565b610bfb565b005b3480156102b257600080fd5b506102bb611188565b6040516102c891906119b4565b60405180910390f35b3480156102dd57600080fd5b506102f860048036038101906102f39190611965565b61118e565b60405161030591906119b4565b60405180910390f35b34801561031a57600080fd5b5061033560048036038101906103309190611b98565b61122f565b005b34801561034357600080fd5b5061035e60048036038101906103599190611b98565b6115cc565b60405161036d93929190611f9b565b60405180910390f35b60016020528060005260406000206000915054906101000a900460ff1681565b6002602052816000526040600020602052806000526040600020600091509150505481565b600160003373ffffffffffffffffffffffffffffffffffffffff1673ffffffffffffffffffffffffffffffffffffffff16815260200190815260200160002060009054906101000a900460ff1615610448576040517f08c379a000000000000000000000000000000000000000000000000000000000815260040161043f90612033565b60405180910390fd5b60018060003373ffffffffffffffffffffffffffffffffffffffff1673ffffffffffffffffffffffffffffffffffffffff16815260200190815260200160002060006101000a81548160ff0219169083151502179055507f54db7a5cb4735e1aac1f53db512d3390390bb6637bd30ad4bf9fc98667d9b9b9336040516104ce9190612053565b60405180910390a1565b600160003373ffffffffffffffffffffffffffffffffffffffff1673ffffffffffffffffffffffffffffffffffffffff16815260200190815260200160002060009054906101000a900460ff16610564576040517f08c379a000000000000000000000000000000000000000000000000000000000815260040161055b906120ba565b60405180910390fd5b600081116105a7576040517f08c379a000000000000000000000000000000000000000000000000000000000815260040161059e90612126565b60405180910390fd5b600083116105ea576040517f08c379a00000000000000000000000000000000000000000000000000000000081526004016105e190612192565b60405180910390fd5b8282101561062d576040517f08c379a000000000000000000000000000000000000000000000000000000000815260040161062490612224565b60405180910390fd5b60006004600081548092919061064290612273565b9190505590506040518061016001604052808281526020013373ffffffffffffffffffffffffffffffffffffffff168152602001868152602001858152602001848152602001428152602001834261069a91906122bb565b815260200160008152602001600073ffffffffffffffffffffffffffffffffffffffff168152602001600115158152602001600015158152506000808381526020019081526020016000206000820151816000015560208201518160010160006101000a81548173ffffffffffffffffffffffffffffffffffffffff021916908373ffffffffffffffffffffffffffffffffffffffff160217905550604082015181600201908161074b91906124fb565b50606082015181600301556080820151816004015560a0820151816005015560c0820151816006015560e082015181600701556101008201518160080160006101000a81548173ffffffffffffffffffffffffffffffffffffffff021916908373ffffffffffffffffffffffffffffffffffffffff1602179055506101208201518160080160146101000a81548160ff0219169083151502179055506101408201518160080160156101000a81548160ff0219169083151502179055509050507fb928fabb4287b33fb3d59644b08cfd2e726532740f8ba9d42f17ece23fbff37f81338760405161083e939291906125cd565b60405180910390a15050505050565b60006020528060005260406000206000915090508060000154908060010160009054906101000a900473ffffffffffffffffffffffffffffffffffffffff169080600201805461089c9061231e565b80601f01602080910402602001604051908101604052809291908181526020018280546108c89061231e565b80156109155780601f106108ea57610100808354040283529160200191610915565b820191906000526020600020905b8154815290600101906020018083116108f857829003601f168201915b5050505050908060030154908060040154908060050154908060060154908060070154908060080160009054906101000a900473ffffffffffffffffffffffffffffffffffffffff16908060080160149054906101000a900460ff16908060080160159054906101000a900460ff1690508b565b600360205281600052604060002081815481106109a557600080fd5b9060005260206000209060030201600091509150508060000160009054906101000a900473ffffffffffffffffffffffffffffffffffffffff16908060010154908060020154905083565b6000816004548110610a37576040517f08c379a0000000000000000000000000000000000000000000000000000000008152600401610a2e90612657565b60405180910390fd5b6003600084815260200190815260200160002080549050915050919050565b600060606000806000806000806000808a6004548110610aab576040517f08c379a0000000000000000000000000000000000000000000000000000000008152600401610aa290612657565b60405180910390fd5b60008060008e815260200190815260200160002090508060010160009054906101000a900473ffffffffffffffffffffffffffffffffffffffff1681600201826003015483600401548460050154856006015486600701548760080160009054906101000a900473ffffffffffffffffffffffffffffffffffffffff168860080160149054906101000a900460ff168960080160159054906101000a900460ff16888054610b589061231e565b80601f0160208091040260200160405190810160405280929190818152602001828054610b849061231e565b8015610bd15780601f10610ba657610100808354040283529160200191610bd1565b820191906000526020600020905b815481529060010190602001808311610bb457829003601f168201915b505050505098509b509b509b509b509b509b509b509b509b509b5050509193959799509193959799565b600160003373ffffffffffffffffffffffffffffffffffffffff1673ffffffffffffffffffffffffffffffffffffffff16815260200190815260200160002060009054906101000a900460ff16610c87576040517f08c379a0000000000000000000000000000000000000000000000000000000008152600401610c7e906120ba565b60405180910390fd5b806004548110610ccc576040517f08c379a0000000000000000000000000000000000000000000000000000000008152600401610cc390612657565b60405180910390fd5b8160008082815260200190815260200160002060080160149054906101000a900460ff16610d2f576040517f08c379a0000000000000000000000000000000000000000000000000000000008152600401610d26906126c3565b60405180910390fd5b60008082815260200190815260200160002060050154421015610d87576040517f08c379a0000000000000000000000000000000000000000000000000000000008152600401610d7e9061272f565b60405180910390fd5b60008082815260200190815260200160002060060154421115610ddf576040517f08c379a0000000000000000000000000000000000000000000000000000000008152600401610dd69061279b565b60405180910390fd5b600080600085815260200190815260200160002090508060010160009054906101000a900473ffffffffffffffffffffffffffffffffffffffff1673ffffffffffffffffffffffffffffffffffffffff163373ffffffffffffffffffffffffffffffffffffffff1603610e87576040517f08c379a0000000000000000000000000000000000000000000000000000000008152600401610e7e90612807565b60405180910390fd5b80600701543411610ecd576040517f08c379a0000000000000000000000000000000000000000000000000000000008152600401610ec490612873565b60405180910390fd5b8060030154341015610f14576040517f08c379a0000000000000000000000000000000000000000000000000000000008152600401610f0b906128df565b60405180910390fd5b600073ffffffffffffffffffffffffffffffffffffffff168160080160009054906101000a900473ffffffffffffffffffffffffffffffffffffffff1673ffffffffffffffffffffffffffffffffffffffff1614610fdc578060080160009054906101000a900473ffffffffffffffffffffffffffffffffffffffff1673ffffffffffffffffffffffffffffffffffffffff166108fc82600701549081150290604051600060405180830381858888f19350505050158015610fda573d6000803e3d6000fd5b505b348160070181905550338160080160006101000a81548173ffffffffffffffffffffffffffffffffffffffff021916908373ffffffffffffffffffffffffffffffffffffffff160217905550346002600086815260200190815260200160002060003373ffffffffffffffffffffffffffffffffffffffff1673ffffffffffffffffffffffffffffffffffffffff168152602001908152602001600020819055506003600085815260200190815260200160002060405180606001604052803373ffffffffffffffffffffffffffffffffffffffff16815260200134815260200142815250908060018154018082558091505060019003906000526020600020906003020160009091909190915060008201518160000160006101000a81548173ffffffffffffffffffffffffffffffffffffffff021916908373ffffffffffffffffffffffffffffffffffffffff160217905550602082015181600101556040820151816002015550507f0e54eff26401bf69b81b26f60bd85ef47f5d85275c1d268d84f68d6897431c4784333460405161117a939291906128ff565b60405180910390a150505050565b60045481565b60008260045481106111d5576040517f08c379a00000000000000000000000000000000000000000000000000000000081526004016111cc90612657565b60405180910390fd5b6002600085815260200190815260200160002060008473ffffffffffffffffffffffffffffffffffffffff1673ffffffffffffffffffffffffffffffffffffffff1681526020019081526020016000205491505092915050565b806004548110611274576040517f08c379a000000000000000000000000000000000000000000000000000000000815260040161126b90612657565b60405180910390fd5b600080600084815260200190815260200160002090508060080160159054906101000a900460ff16156112dc576040517f08c379a00000000000000000000000000000000000000000000000000000000081526004016112d390612982565b60405180910390fd5b80600601544210158061133e57508060010160009054906101000a900473ffffffffffffffffffffffffffffffffffffffff1673ffffffffffffffffffffffffffffffffffffffff163373ffffffffffffffffffffffffffffffffffffffff16145b61137d576040517f08c379a0000000000000000000000000000000000000000000000000000000008152600401611374906129ee565b60405180910390fd5b60018160080160156101000a81548160ff02191690831515021790555060008160080160146101000a81548160ff021916908315150217905550806004015481600701541061149d578060010160009054906101000a900473ffffffffffffffffffffffffffffffffffffffff1673ffffffffffffffffffffffffffffffffffffffff166108fc82600701549081150290604051600060405180830381858888f19350505050158015611434573d6000803e3d6000fd5b507fd2aa34a4fdbbc6dff6a3e56f46e0f3ae2a31d7785ff3487aa5c95c642acea501838260080160009054906101000a900473ffffffffffffffffffffffffffffffffffffffff168360070154604051611490939291906128ff565b60405180910390a16115c7565b600073ffffffffffffffffffffffffffffffffffffffff168160080160009054906101000a900473ffffffffffffffffffffffffffffffffffffffff1673ffffffffffffffffffffffffffffffffffffffff16146115c6578060080160009054906101000a900473ffffffffffffffffffffffffffffffffffffffff1673ffffffffffffffffffffffffffffffffffffffff166108fc82600701549081150290604051600060405180830381858888f19350505050158015611563573d6000803e3d6000fd5b507f3367befd2b2f39615cd79917c2153263c4af1d3945ec003e5d5bfc13a8d858338160080160009054906101000a900473ffffffffffffffffffffffffffffffffffffffff1682600701546040516115bd929190612a0e565b60405180910390a15b5b505050565b6060806060836004548110611616576040517f08c379a000000000000000000000000000000000000000000000000000000000815260040161160d90612657565b60405180910390fd5b60006003600087815260200190815260200160002090506000818054905090508067ffffffffffffffff8111156116505761164f6119ea565b5b60405190808252806020026020018201604052801561167e5781602001602082028036833780820191505090505b5095508067ffffffffffffffff81111561169b5761169a6119ea565b5b6040519080825280602002602001820160405280156116c95781602001602082028036833780820191505090505b5094508067ffffffffffffffff8111156116e6576116e56119ea565b5b6040519080825280602002602001820160405280156117145781602001602082028036833780820191505090505b50935060005b8181101561184f5782818154811061173557611734612a37565b5b906000526020600020906003020160000160009054906101000a900473ffffffffffffffffffffffffffffffffffffffff1687828151811061177a57611779612a37565b5b602002602001019073ffffffffffffffffffffffffffffffffffffffff16908173ffffffffffffffffffffffffffffffffffffffff16815250508281815481106117c7576117c6612a37565b5b9060005260206000209060030201600101548682815181106117ec576117eb612a37565b5b60200260200101818152505082818154811061180b5761180a612a37565b5b9060005260206000209060030201600201548582815181106118305761182f612a37565b5b602002602001018181525050808061184790612273565b91505061171a565b505050509193909250565b6000604051905090565b600080fd5b600080fd5b600073ffffffffffffffffffffffffffffffffffffffff82169050919050565b60006118998261186e565b9050919050565b6118a98161188e565b81146118b457600080fd5b50565b6000813590506118c6816118a0565b92915050565b6000602082840312156118e2576118e1611864565b5b60006118f0848285016118b7565b91505092915050565b60008115159050919050565b61190e816118f9565b82525050565b60006020820190506119296000830184611905565b92915050565b6000819050919050565b6119428161192f565b811461194d57600080fd5b50565b60008135905061195f81611939565b92915050565b6000806040838503121561197c5761197b611864565b5b600061198a85828601611950565b925050602061199b858286016118b7565b9150509250929050565b6119ae8161192f565b82525050565b60006020820190506119c960008301846119a5565b92915050565b600080fd5b600080fd5b6000601f19601f8301169050919050565b7f4e487b7100000000000000000000000000000000000000000000000000000000600052604160045260246000fd5b611a22826119d9565b810181811067ffffffffffffffff82111715611a4157611a406119ea565b5b80604052505050565b6000611a5461185a565b9050611a608282611a19565b919050565b600067ffffffffffffffff821115611a8057611a7f6119ea565b5b611a89826119d9565b9050602081019050919050565b82818337600083830152505050565b6000611ab8611ab384611a65565b611a4a565b905082815260208101848484011115611ad457611ad36119d4565b5b611adf848285611a96565b509392505050565b600082601f830112611afc57611afb6119cf565b5b8135611b0c848260208601611aa5565b91505092915050565b60008060008060808587031215611b2f57611b2e611864565b5b600085013567ffffffffffffffff811115611b4d57611b4c611869565b5b611b5987828801611ae7565b9450506020611b6a87828801611950565b9350506040611b7b87828801611950565b9250506060611b8c87828801611950565b91505092959194509250565b600060208284031215611bae57611bad611864565b5b6000611bbc84828501611950565b91505092915050565b611bce8161188e565b82525050565b600081519050919050565b600082825260208201905092915050565b60005b83811015611c0e578082015181840152602081019050611bf3565b60008484015250505050565b6000611c2582611bd4565b611c2f8185611bdf565b9350611c3f818560208601611bf0565b611c48816119d9565b840191505092915050565b600061016082019050611c69600083018e6119a5565b611c76602083018d611bc5565b8181036040830152611c88818c611c1a565b9050611c97606083018b6119a5565b611ca4608083018a6119a5565b611cb160a08301896119a5565b611cbe60c08301886119a5565b611ccb60e08301876119a5565b611cd9610100830186611bc5565b611ce7610120830185611905565b611cf5610140830184611905565b9c9b505050505050505050505050565b60008060408385031215611d1c57611d1b611864565b5b6000611d2a85828601611950565b9250506020611d3b85828601611950565b9150509250929050565b6000606082019050611d5a6000830186611bc5565b611d6760208301856119a5565b611d7460408301846119a5565b949350505050565b600061014082019050611d92600083018d611bc5565b8181036020830152611da4818c611c1a565b9050611db3604083018b6119a5565b611dc0606083018a6119a5565b611dcd60808301896119a5565b611dda60a08301886119a5565b611de760c08301876119a5565b611df460e0830186611bc5565b611e02610100830185611905565b611e10610120830184611905565b9b9a5050505050505050505050565b600081519050919050565b600082825260208201905092915050565b6000819050602082019050919050565b611e548161188e565b82525050565b6000611e668383611e4b565b60208301905092915050565b6000602082019050919050565b6000611e8a82611e1f565b611e948185611e2a565b9350611e9f83611e3b565b8060005b83811015611ed0578151611eb78882611e5a565b9750611ec283611e72565b925050600181019050611ea3565b5085935050505092915050565b600081519050919050565b600082825260208201905092915050565b6000819050602082019050919050565b611f128161192f565b82525050565b6000611f248383611f09565b60208301905092915050565b6000602082019050919050565b6000611f4882611edd565b611f528185611ee8565b9350611f5d83611ef9565b8060005b83811015611f8e578151611f758882611f18565b9750611f8083611f30565b925050600181019050611f61565b5085935050505092915050565b60006060820190508181036000830152611fb58186611e7f565b90508181036020830152611fc98185611f3d565b90508181036040830152611fdd8184611f3d565b9050949350505050565b7f5573657220616c72656164792072656769737465726564000000000000000000600082015250565b600061201d601783611bdf565b915061202882611fe7565b602082019050919050565b6000602082019050818103600083015261204c81612010565b9050919050565b60006020820190506120686000830184611bc5565b92915050565b7f55736572206e6f74207265676973746572656400000000000000000000000000600082015250565b60006120a4601383611bdf565b91506120af8261206e565b602082019050919050565b600060208201905081810360008301526120d381612097565b9050919050565b7f4475726174696f6e206d75737420626520706f73697469766500000000000000600082015250565b6000612110601983611bdf565b915061211b826120da565b602082019050919050565b6000602082019050818103600083015261213f81612103565b9050919050565b7f5374617274696e67207072696365206d75737420626520706f73697469766500600082015250565b600061217c601f83611bdf565b915061218782612146565b602082019050919050565b600060208201905081810360008301526121ab8161216f565b9050919050565b7f52657365727665207072696365206d757374206265203e3d207374617274696e60008201527f6720707269636500000000000000000000000000000000000000000000000000602082015250565b600061220e602783611bdf565b9150612219826121b2565b604082019050919050565b6000602082019050818103600083015261223d81612201565b9050919050565b7f4e487b7100000000000000000000000000000000000000000000000000000000600052601160045260246000fd5b600061227e8261192f565b91507fffffffffffffffffffffffffffffffffffffffffffffffffffffffffffffffff82036122b0576122af612244565b5b600182019050919050565b60006122c68261192f565b91506122d18361192f565b92508282019050808211156122e9576122e8612244565b5b92915050565b7f4e487b7100000000000000000000000000000000000000000000000000000000600052602260045260246000fd5b6000600282049050600182168061233657607f821691505b602082108103612349576123486122ef565b5b50919050565b60008190508160005260206000209050919050565b60006020601f8301049050919050565b600082821b905092915050565b6000600883026123b17fffffffffffffffffffffffffffffffffffffffffffffffffffffffffffffffff82612374565b6123bb8683612374565b95508019841693508086168417925050509392505050565b6000819050919050565b60006123f86123f36123ee8461192f565b6123d3565b61192f565b9050919050565b6000819050919050565b612412836123dd565b61242661241e826123ff565b848454612381565b825550505050565b600090565b61243b61242e565b612446818484612409565b505050565b5b8181101561246a5761245f600082612433565b60018101905061244c565b5050565b601f8211156124af576124808161234f565b61248984612364565b81016020851015612498578190505b6124ac6124a485612364565b83018261244b565b50505b505050565b600082821c905092915050565b60006124d2600019846008026124b4565b1980831691505092915050565b60006124eb83836124c1565b9150826002028217905092915050565b61250482611bd4565b67ffffffffffffffff81111561251d5761251c6119ea565b5b612527825461231e565b61253282828561246e565b600060209050601f8311600181146125655760008415612553578287015190505b61255d85826124df565b8655506125c5565b601f1984166125738661234f565b60005b8281101561259b57848901518255600182019150602085019450602081019050612576565b868310156125b857848901516125b4601f8916826124c1565b8355505b6001600288020188555050505b505050505050565b60006060820190506125e260008301866119a5565b6125ef6020830185611bc5565b81810360408301526126018184611c1a565b9050949350505050565b7f41756374696f6e20646f6573206e6f7420657869737400000000000000000000600082015250565b6000612641601683611bdf565b915061264c8261260b565b602082019050919050565b6000602082019050818103600083015261267081612634565b9050919050565b7f41756374696f6e206e6f74206163746976650000000000000000000000000000600082015250565b60006126ad601283611bdf565b91506126b882612677565b602082019050919050565b600060208201905081810360008301526126dc816126a0565b9050919050565b7f41756374696f6e206e6f74207374617274656400000000000000000000000000600082015250565b6000612719601383611bdf565b9150612724826126e3565b602082019050919050565b600060208201905081810360008301526127488161270c565b9050919050565b7f41756374696f6e20656e64656400000000000000000000000000000000000000600082015250565b6000612785600d83611bdf565b91506127908261274f565b602082019050919050565b600060208201905081810360008301526127b481612778565b9050919050565b7f53656c6c65722063616e6e6f7420626964000000000000000000000000000000600082015250565b60006127f1601183611bdf565b91506127fc826127bb565b602082019050919050565b60006020820190508181036000830152612820816127e4565b9050919050565b7f42696420746f6f206c6f77000000000000000000000000000000000000000000600082015250565b600061285d600b83611bdf565b915061286882612827565b602082019050919050565b6000602082019050818103600083015261288c81612850565b9050919050565b7f4269642062656c6f77207374617274696e672070726963650000000000000000600082015250565b60006128c9601883611bdf565b91506128d482612893565b602082019050919050565b600060208201905081810360008301526128f8816128bc565b9050919050565b600060608201905061291460008301866119a5565b6129216020830185611bc5565b61292e60408301846119a5565b949350505050565b7f41756374696f6e20616c726561647920656e6465640000000000000000000000600082015250565b600061296c601583611bdf565b915061297782612936565b602082019050919050565b6000602082019050818103600083015261299b8161295f565b9050919050565b7f41756374696f6e207374696c6c20616374697665000000000000000000000000600082015250565b60006129d8601483611bdf565b91506129e3826129a2565b602082019050919050565b60006020820190508181036000830152612a07816129cb565b9050919050565b6000604082019050612a236000830185611bc5565b612a3060208301846119a5565b9392505050565b7f4e487b7100000000000000000000000000000000000000000000000000000000600052603260045260246000fdfea26469706673582212208924edd91c93019b24975f1400c313ed6ccb1eaf6b4aa5a142b31c2e213363ce64736f6c63430008110033",
  "linkReferences": {},
  "deployedLinkReferences": {}
}